{
  "_format": "hh-sol-artifact-1",
  "contractName": "IcoMarketplace",
  "sourceName": "contracts/IcoMarketplace.sol",
  "abi": [
    {
      "anonymous": false,
      "inputs": [
        {
          "indexed": true,
          "internalType": "uint256",
          "name": "id",
          "type": "uint256"
        },
        {
          "indexed": false,
          "internalType": "address",
          "name": "tokenContract",
          "type": "address"
        },
        {
          "indexed": false,
          "internalType": "address",
          "name": "icoContract",
          "type": "address"
        },
        {
          "indexed": false,
          "internalType": "bool",
          "name": "isAvaliable",
          "type": "bool"
        },
        {
          "indexed": false,
          "internalType": "address",
          "name": "icoAdmin",
          "type": "address"
        },
        {
          "indexed": false,
          "internalType": "string",
          "name": "icoImage",
          "type": "string"
        },
        {
          "indexed": false,
          "internalType": "string",
          "name": "icoName",
          "type": "string"
        }
      ],
      "name": "IcoMarketItemCreated",
      "type": "event"
    },
    {
      "inputs": [
        {
          "internalType": "uint256",
          "name": "id",
          "type": "uint256"
        }
      ],
      "name": "changeAvilablity",
      "outputs": [],
      "stateMutability": "nonpayable",
      "type": "function"
    },
    {
      "inputs": [
        {
          "internalType": "address",
          "name": "tokenContract",
          "type": "address"
        },
        {
          "internalType": "address",
          "name": "icoContract",
          "type": "address"
        },
        {
          "internalType": "string",
          "name": "icoImage",
          "type": "string"
        },
        {
          "internalType": "string",
          "name": "icoName",
          "type": "string"
        }
      ],
      "name": "createIcoForSale",
      "outputs": [],
      "stateMutability": "nonpayable",
      "type": "function"
    },
    {
      "inputs": [],
      "name": "getAllAvaliableICOs",
      "outputs": [
        {
          "components": [
            {
              "internalType": "uint256",
              "name": "icoId",
              "type": "uint256"
            },
            {
              "internalType": "address",
              "name": "tokenContract",
              "type": "address"
            },
            {
              "internalType": "address",
              "name": "icoContract",
              "type": "address"
            },
            {
              "internalType": "bool",
              "name": "isAvaliable",
              "type": "bool"
            },
            {
              "internalType": "address",
              "name": "icoAdmin",
              "type": "address"
            },
            {
              "internalType": "string",
              "name": "icoImage",
              "type": "string"
            },
            {
              "internalType": "string",
              "name": "icoName",
              "type": "string"
            }
          ],
          "internalType": "struct IcoMarketplace.icosAvliableItem[]",
          "name": "",
          "type": "tuple[]"
        }
      ],
      "stateMutability": "view",
      "type": "function"
    },
    {
      "inputs": [],
      "name": "icosCountEnded",
      "outputs": [
        {
          "internalType": "uint256",
          "name": "_value",
          "type": "uint256"
        }
      ],
      "stateMutability": "view",
      "type": "function"
    },
    {
      "inputs": [
        {
          "internalType": "uint256",
          "name": "",
          "type": "uint256"
        }
      ],
      "name": "idsForMarketItem",
      "outputs": [
        {
          "internalType": "uint256",
          "name": "icoId",
          "type": "uint256"
        },
        {
          "internalType": "address",
          "name": "tokenContract",
          "type": "address"
        },
        {
          "internalType": "address",
          "name": "icoContract",
          "type": "address"
        },
        {
          "internalType": "bool",
          "name": "isAvaliable",
          "type": "bool"
        },
        {
          "internalType": "address",
          "name": "icoAdmin",
          "type": "address"
        },
        {
          "internalType": "string",
          "name": "icoImage",
          "type": "string"
        },
        {
          "internalType": "string",
          "name": "icoName",
          "type": "string"
        }
      ],
      "stateMutability": "view",
      "type": "function"
    },
    {
      "inputs": [],
      "name": "itemId",
      "outputs": [
        {
          "internalType": "uint256",
          "name": "_value",
          "type": "uint256"
        }
      ],
      "stateMutability": "view",
      "type": "function"
    }
  ],
  "bytecode": "0x608060405234801561001057600080fd5b506001600081905550611687806100286000396000f3fe608060405234801561001057600080fd5b50600436106100625760003560e01c8063481c2eeb146100675780638afdbc2d14610085578063aeb54dfc146100a1578063bc6ba637146100bf578063c2f629f2146100f5578063ca6158cb14610111575b600080fd5b61006f61012f565b60405161007c9190610f02565b60405180910390f35b61009f600480360381019061009a9190610f64565b6104ce565b005b6100a9610611565b6040516100b69190610fa0565b60405180910390f35b6100d960048036038101906100d49190610f64565b61061d565b6040516100ec9796959493929190611023565b60405180910390f35b61010f600480360381019061010a9190611201565b6107dc565b005b610119610b3b565b6040516101269190610fa0565b60405180910390f35b6060600061013d6002610b47565b9050600061014b6003610b47565b6101556002610b47565b61015f91906112cf565b90506000808267ffffffffffffffff81111561017e5761017d6110d6565b5b6040519080825280602002602001820160405280156101b757816020015b6101a4610b6b565b81526020019060019003908161019c5790505b50905060005b848110156104c35760011515600460006001846101da9190611303565b815260200190815260200160002060020160149054906101000a900460ff16151514156104b05760006001826102109190611303565b90506000600460008381526020019081526020016000209050806040518060e0016040529081600082015481526020016001820160009054906101000a900473ffffffffffffffffffffffffffffffffffffffff1673ffffffffffffffffffffffffffffffffffffffff1673ffffffffffffffffffffffffffffffffffffffff1681526020016002820160009054906101000a900473ffffffffffffffffffffffffffffffffffffffff1673ffffffffffffffffffffffffffffffffffffffff1673ffffffffffffffffffffffffffffffffffffffff1681526020016002820160149054906101000a900460ff161515151581526020016003820160009054906101000a900473ffffffffffffffffffffffffffffffffffffffff1673ffffffffffffffffffffffffffffffffffffffff1673ffffffffffffffffffffffffffffffffffffffff16815260200160048201805461036c90611388565b80601f016020809104026020016040519081016040528092919081815260200182805461039890611388565b80156103e55780601f106103ba576101008083540402835291602001916103e5565b820191906000526020600020905b8154815290600101906020018083116103c857829003601f168201915b505050505081526020016005820180546103fe90611388565b80601f016020809104026020016040519081016040528092919081815260200182805461042a90611388565b80156104775780601f1061044c57610100808354040283529160200191610477565b820191906000526020600020905b81548152906001019060200180831161045a57829003601f168201915b505050505081525050848681518110610493576104926113ba565b5b60200260200101819052506001856104ab9190611303565b945050505b80806104bb906113e9565b9150506101bd565b508094505050505090565b3373ffffffffffffffffffffffffffffffffffffffff166004600083815260200190815260200160002060030160009054906101000a900473ffffffffffffffffffffffffffffffffffffffff1673ffffffffffffffffffffffffffffffffffffffff1614610572576040517f08c379a00000000000000000000000000000000000000000000000000000000081526004016105699061147e565b60405180910390fd5b6004600082815260200190815260200160002060020160149054906101000a900460ff166105d5576040517f08c379a00000000000000000000000000000000000000000000000000000000081526004016105cc906114ea565b60405180910390fd5b60006004600083815260200190815260200160002060020160146101000a81548160ff02191690831515021790555061060e6003610b55565b50565b60038060000154905081565b60046020528060005260406000206000915090508060000154908060010160009054906101000a900473ffffffffffffffffffffffffffffffffffffffff16908060020160009054906101000a900473ffffffffffffffffffffffffffffffffffffffff16908060020160149054906101000a900460ff16908060030160009054906101000a900473ffffffffffffffffffffffffffffffffffffffff16908060040180546106cb90611388565b80601f01602080910402602001604051908101604052809291908181526020018280546106f790611388565b80156107445780601f1061071957610100808354040283529160200191610744565b820191906000526020600020905b81548152906001019060200180831161072757829003601f168201915b50505050509080600501805461075990611388565b80601f016020809104026020016040519081016040528092919081815260200182805461078590611388565b80156107d25780601f106107a7576101008083540402835291602001916107d2565b820191906000526020600020905b8154815290600101906020018083116107b557829003601f168201915b5050505050905087565b60026000541415610822576040517f08c379a000000000000000000000000000000000000000000000000000000000815260040161081990611556565b60405180910390fd5b6002600081905550600073ffffffffffffffffffffffffffffffffffffffff168473ffffffffffffffffffffffffffffffffffffffff16141561089a576040517f08c379a0000000000000000000000000000000000000000000000000000000008152600401610891906115c2565b60405180910390fd5b600073ffffffffffffffffffffffffffffffffffffffff168373ffffffffffffffffffffffffffffffffffffffff16141561090a576040517f08c379a0000000000000000000000000000000000000000000000000000000008152600401610901906115c2565b60405180910390fd5b6109146002610b55565b60006109206002610b47565b90506040518060e001604052808281526020018673ffffffffffffffffffffffffffffffffffffffff1681526020018573ffffffffffffffffffffffffffffffffffffffff1681526020016001151581526020013373ffffffffffffffffffffffffffffffffffffffff16815260200184815260200183815250600460008381526020019081526020016000206000820151816000015560208201518160010160006101000a81548173ffffffffffffffffffffffffffffffffffffffff021916908373ffffffffffffffffffffffffffffffffffffffff16021790555060408201518160020160006101000a81548173ffffffffffffffffffffffffffffffffffffffff021916908373ffffffffffffffffffffffffffffffffffffffff16021790555060608201518160020160146101000a81548160ff02191690831515021790555060808201518160030160006101000a81548173ffffffffffffffffffffffffffffffffffffffff021916908373ffffffffffffffffffffffffffffffffffffffff16021790555060a0820151816004019080519060200190610ac8929190610bec565b5060c0820151816005019080519060200190610ae5929190610bec565b50905050807f2d87bee9a7ad8fa16a00248f67f2e491e0d59b6a1f91fc1cfa5a1c98e0a788e986866001338888604051610b24969594939291906115e2565b60405180910390a250600160008190555050505050565b60028060000154905081565b600081600001549050919050565b6001816000016000828254019250508190555050565b6040518060e0016040528060008152602001600073ffffffffffffffffffffffffffffffffffffffff168152602001600073ffffffffffffffffffffffffffffffffffffffff168152602001600015158152602001600073ffffffffffffffffffffffffffffffffffffffff16815260200160608152602001606081525090565b828054610bf890611388565b90600052602060002090601f016020900481019282610c1a5760008555610c61565b82601f10610c3357805160ff1916838001178555610c61565b82800160010185558215610c61579182015b82811115610c60578251825591602001919060010190610c45565b5b509050610c6e9190610c72565b5090565b5b80821115610c8b576000816000905550600101610c73565b5090565b600081519050919050565b600082825260208201905092915050565b6000819050602082019050919050565b6000819050919050565b610cce81610cbb565b82525050565b600073ffffffffffffffffffffffffffffffffffffffff82169050919050565b6000610cff82610cd4565b9050919050565b610d0f81610cf4565b82525050565b60008115159050919050565b610d2a81610d15565b82525050565b600081519050919050565b600082825260208201905092915050565b60005b83811015610d6a578082015181840152602081019050610d4f565b83811115610d79576000848401525b50505050565b6000601f19601f8301169050919050565b6000610d9b82610d30565b610da58185610d3b565b9350610db5818560208601610d4c565b610dbe81610d7f565b840191505092915050565b600060e083016000830151610de16000860182610cc5565b506020830151610df46020860182610d06565b506040830151610e076040860182610d06565b506060830151610e1a6060860182610d21565b506080830151610e2d6080860182610d06565b5060a083015184820360a0860152610e458282610d90565b91505060c083015184820360c0860152610e5f8282610d90565b9150508091505092915050565b6000610e788383610dc9565b905092915050565b6000602082019050919050565b6000610e9882610c8f565b610ea28185610c9a565b935083602082028501610eb485610cab565b8060005b85811015610ef05784840389528151610ed18582610e6c565b9450610edc83610e80565b925060208a01995050600181019050610eb8565b50829750879550505050505092915050565b60006020820190508181036000830152610f1c8184610e8d565b905092915050565b6000604051905090565b600080fd5b600080fd5b610f4181610cbb565b8114610f4c57600080fd5b50565b600081359050610f5e81610f38565b92915050565b600060208284031215610f7a57610f79610f2e565b5b6000610f8884828501610f4f565b91505092915050565b610f9a81610cbb565b82525050565b6000602082019050610fb56000830184610f91565b92915050565b610fc481610cf4565b82525050565b610fd381610d15565b82525050565b600082825260208201905092915050565b6000610ff582610d30565b610fff8185610fd9565b935061100f818560208601610d4c565b61101881610d7f565b840191505092915050565b600060e082019050611038600083018a610f91565b6110456020830189610fbb565b6110526040830188610fbb565b61105f6060830187610fca565b61106c6080830186610fbb565b81810360a083015261107e8185610fea565b905081810360c08301526110928184610fea565b905098975050505050505050565b6110a981610cf4565b81146110b457600080fd5b50565b6000813590506110c6816110a0565b92915050565b600080fd5b600080fd5b7f4e487b7100000000000000000000000000000000000000000000000000000000600052604160045260246000fd5b61110e82610d7f565b810181811067ffffffffffffffff8211171561112d5761112c6110d6565b5b80604052505050565b6000611140610f24565b905061114c8282611105565b919050565b600067ffffffffffffffff82111561116c5761116b6110d6565b5b61117582610d7f565b9050602081019050919050565b82818337600083830152505050565b60006111a461119f84611151565b611136565b9050828152602081018484840111156111c0576111bf6110d1565b5b6111cb848285611182565b509392505050565b600082601f8301126111e8576111e76110cc565b5b81356111f8848260208601611191565b91505092915050565b6000806000806080858703121561121b5761121a610f2e565b5b6000611229878288016110b7565b945050602061123a878288016110b7565b935050604085013567ffffffffffffffff81111561125b5761125a610f33565b5b611267878288016111d3565b925050606085013567ffffffffffffffff81111561128857611287610f33565b5b611294878288016111d3565b91505092959194509250565b7f4e487b7100000000000000000000000000000000000000000000000000000000600052601160045260246000fd5b60006112da82610cbb565b91506112e583610cbb565b9250828210156112f8576112f76112a0565b5b828203905092915050565b600061130e82610cbb565b915061131983610cbb565b9250827fffffffffffffffffffffffffffffffffffffffffffffffffffffffffffffffff0382111561134e5761134d6112a0565b5b828201905092915050565b7f4e487b7100000000000000000000000000000000000000000000000000000000600052602260045260246000fd5b600060028204905060018216806113a057607f821691505b602082108114156113b4576113b3611359565b5b50919050565b7f4e487b7100000000000000000000000000000000000000000000000000000000600052603260045260246000fd5b60006113f482610cbb565b91507fffffffffffffffffffffffffffffffffffffffffffffffffffffffffffffffff821415611427576114266112a0565b5b600182019050919050565b7f4f6e6c792061646d696e206f662069636f2063616e20656e6420697400000000600082015250565b6000611468601c83610fd9565b915061147382611432565b602082019050919050565b600060208201905081810360008301526114978161145b565b9050919050565b7f746869732049636f20416c726561647920456e64656400000000000000000000600082015250565b60006114d4601683610fd9565b91506114df8261149e565b602082019050919050565b60006020820190508181036000830152611503816114c7565b9050919050565b7f5265656e7472616e637947756172643a207265656e7472616e742063616c6c00600082015250565b6000611540601f83610fd9565b915061154b8261150a565b602082019050919050565b6000602082019050818103600083015261156f81611533565b9050919050565b7f616464726573732073686f756c64206e6f7420626520657175616c2030783000600082015250565b60006115ac601f83610fd9565b91506115b782611576565b602082019050919050565b600060208201905081810360008301526115db8161159f565b9050919050565b600060c0820190506115f76000830189610fbb565b6116046020830188610fbb565b6116116040830187610fca565b61161e6060830186610fbb565b81810360808301526116308185610fea565b905081810360a08301526116448184610fea565b905097965050505050505056fea26469706673582212204b583255477e85713d55d0f7c4cc3e6831a6e39c52c10035c53cc4af9dce83ec64736f6c63430008090033",
  "linkReferences": {},
  "deployedLinkReferences": {}
}