{
  "_format": "hh-sol-artifact-1",
  "contractName": "TokenIco",
  "sourceName": "contracts/TokenIco.sol",
  "abi": [
    {
      "inputs": [
        {
          "internalType": "contract Token",
          "name": "_tokenContract",
          "type": "address"
        },
        {
          "internalType": "uint256",
          "name": "_tokenPrice",
          "type": "uint256"
        }
      ],
      "stateMutability": "nonpayable",
      "type": "constructor"
    },
    {
      "anonymous": false,
      "inputs": [
        {
          "indexed": false,
          "internalType": "address",
          "name": "_buyer",
          "type": "address"
        },
        {
          "indexed": false,
          "internalType": "uint256",
          "name": "_amount",
          "type": "uint256"
        }
      ],
      "name": "Sell",
      "type": "event"
    },
    {
      "inputs": [
        {
          "internalType": "uint256",
          "name": "_numberOfTokens",
          "type": "uint256"
        }
      ],
      "name": "buyTokens",
      "outputs": [],
      "stateMutability": "payable",
      "type": "function"
    },
    {
      "inputs": [],
      "name": "endSale",
      "outputs": [],
      "stateMutability": "nonpayable",
      "type": "function"
    },
    {
      "inputs": [],
      "name": "getAvaliableBalance",
      "outputs": [
        {
          "internalType": "uint256",
          "name": "",
          "type": "uint256"
        }
      ],
      "stateMutability": "view",
      "type": "function"
    },
    {
      "inputs": [],
      "name": "tokenContract",
      "outputs": [
        {
          "internalType": "contract Token",
          "name": "",
          "type": "address"
        }
      ],
      "stateMutability": "view",
      "type": "function"
    },
    {
      "inputs": [],
      "name": "tokenPrice",
      "outputs": [
        {
          "internalType": "uint256",
          "name": "",
          "type": "uint256"
        }
      ],
      "stateMutability": "view",
      "type": "function"
    },
    {
      "inputs": [],
      "name": "tokensSold",
      "outputs": [
        {
          "internalType": "uint256",
          "name": "",
          "type": "uint256"
        }
      ],
      "stateMutability": "view",
      "type": "function"
    }
  ],
  "bytecode": "0x60806040523480156200001157600080fd5b5060405162000cb638038062000cb6833981810160405281019062000037919062000180565b336000806101000a81548173ffffffffffffffffffffffffffffffffffffffff021916908373ffffffffffffffffffffffffffffffffffffffff16021790555081600160006101000a81548173ffffffffffffffffffffffffffffffffffffffff021916908373ffffffffffffffffffffffffffffffffffffffff160217905550806002819055505050620001c7565b600080fd5b600073ffffffffffffffffffffffffffffffffffffffff82169050919050565b6000620000f982620000cc565b9050919050565b60006200010d82620000ec565b9050919050565b6200011f8162000100565b81146200012b57600080fd5b50565b6000815190506200013f8162000114565b92915050565b6000819050919050565b6200015a8162000145565b81146200016657600080fd5b50565b6000815190506200017a816200014f565b92915050565b600080604083850312156200019a5762000199620000c7565b5b6000620001aa858286016200012e565b9250506020620001bd8582860162000169565b9150509250929050565b610adf80620001d76000396000f3fe6080604052600436106100555760003560e01c806328dbb72f1461005a5780633610724e14610085578063380d831b146100a1578063518ab2a8146100b857806355a373d6146100e35780637ff9b5961461010e575b600080fd5b34801561006657600080fd5b5061006f610139565b60405161007c91906106ce565b60405180910390f35b61009f600480360381019061009a919061071a565b6101eb565b005b3480156100ad57600080fd5b506100b6610409565b005b3480156100c457600080fd5b506100cd61064c565b6040516100da91906106ce565b60405180910390f35b3480156100ef57600080fd5b506100f8610652565b60405161010591906107c6565b60405180910390f35b34801561011a57600080fd5b50610123610678565b60405161013091906106ce565b60405180910390f35b6000600160009054906101000a900473ffffffffffffffffffffffffffffffffffffffff1673ffffffffffffffffffffffffffffffffffffffff166370a08231306040518263ffffffff1660e01b81526004016101969190610802565b60206040518083038186803b1580156101ae57600080fd5b505afa1580156101c2573d6000803e3d6000fd5b505050506040513d601f19601f820116820180604052508101906101e69190610832565b905090565b6000811161022e576040517f08c379a0000000000000000000000000000000000000000000000000000000008152600401610225906108bc565b60405180910390fd5b61023a8160025461067e565b341461024557600080fd5b80600160009054906101000a900473ffffffffffffffffffffffffffffffffffffffff1673ffffffffffffffffffffffffffffffffffffffff166370a08231306040518263ffffffff1660e01b81526004016102a19190610802565b60206040518083038186803b1580156102b957600080fd5b505afa1580156102cd573d6000803e3d6000fd5b505050506040513d601f19601f820116820180604052508101906102f19190610832565b10156102fc57600080fd5b600160009054906101000a900473ffffffffffffffffffffffffffffffffffffffff1673ffffffffffffffffffffffffffffffffffffffff1663a9059cbb33836040518363ffffffff1660e01b81526004016103599291906108dc565b602060405180830381600087803b15801561037357600080fd5b505af1158015610387573d6000803e3d6000fd5b505050506040513d601f19601f820116820180604052508101906103ab919061093d565b6103b457600080fd5b80600360008282546103c69190610999565b925050819055507f5e5e995ce3133561afceaa51a9a154d5db228cd7525d34df5185582c18d3df0933826040516103fe9291906108dc565b60405180910390a150565b60008054906101000a900473ffffffffffffffffffffffffffffffffffffffff1673ffffffffffffffffffffffffffffffffffffffff163373ffffffffffffffffffffffffffffffffffffffff161461046157600080fd5b600160009054906101000a900473ffffffffffffffffffffffffffffffffffffffff1673ffffffffffffffffffffffffffffffffffffffff1663a9059cbb60008054906101000a900473ffffffffffffffffffffffffffffffffffffffff16600160009054906101000a900473ffffffffffffffffffffffffffffffffffffffff1673ffffffffffffffffffffffffffffffffffffffff166370a08231306040518263ffffffff1660e01b815260040161051b9190610802565b60206040518083038186803b15801561053357600080fd5b505afa158015610547573d6000803e3d6000fd5b505050506040513d601f19601f8201168201806040525081019061056b9190610832565b6040518363ffffffff1660e01b81526004016105889291906108dc565b602060405180830381600087803b1580156105a257600080fd5b505af11580156105b6573d6000803e3d6000fd5b505050506040513d601f19601f820116820180604052508101906105da919061093d565b6105e357600080fd5b60008054906101000a900473ffffffffffffffffffffffffffffffffffffffff1673ffffffffffffffffffffffffffffffffffffffff166108fc479081150290604051600060405180830381858888f19350505050158015610649573d6000803e3d6000fd5b50565b60035481565b600160009054906101000a900473ffffffffffffffffffffffffffffffffffffffff1681565b60025481565b6000808214806106a657508282838561069791906109ef565b9250826106a49190610a78565b145b6106af57600080fd5b92915050565b6000819050919050565b6106c8816106b5565b82525050565b60006020820190506106e360008301846106bf565b92915050565b600080fd5b6106f7816106b5565b811461070257600080fd5b50565b600081359050610714816106ee565b92915050565b6000602082840312156107305761072f6106e9565b5b600061073e84828501610705565b91505092915050565b600073ffffffffffffffffffffffffffffffffffffffff82169050919050565b6000819050919050565b600061078c61078761078284610747565b610767565b610747565b9050919050565b600061079e82610771565b9050919050565b60006107b082610793565b9050919050565b6107c0816107a5565b82525050565b60006020820190506107db60008301846107b7565b92915050565b60006107ec82610747565b9050919050565b6107fc816107e1565b82525050565b600060208201905061081760008301846107f3565b92915050565b60008151905061082c816106ee565b92915050565b600060208284031215610848576108476106e9565b5b60006108568482850161081d565b91505092915050565b600082825260208201905092915050565b7f43616e206e6f7420427579204c657373207468616e206f6e6520746f6b656e00600082015250565b60006108a6601f8361085f565b91506108b182610870565b602082019050919050565b600060208201905081810360008301526108d581610899565b9050919050565b60006040820190506108f160008301856107f3565b6108fe60208301846106bf565b9392505050565b60008115159050919050565b61091a81610905565b811461092557600080fd5b50565b60008151905061093781610911565b92915050565b600060208284031215610953576109526106e9565b5b600061096184828501610928565b91505092915050565b7f4e487b7100000000000000000000000000000000000000000000000000000000600052601160045260246000fd5b60006109a4826106b5565b91506109af836106b5565b9250827fffffffffffffffffffffffffffffffffffffffffffffffffffffffffffffffff038211156109e4576109e361096a565b5b828201905092915050565b60006109fa826106b5565b9150610a05836106b5565b9250817fffffffffffffffffffffffffffffffffffffffffffffffffffffffffffffffff0483118215151615610a3e57610a3d61096a565b5b828202905092915050565b7f4e487b7100000000000000000000000000000000000000000000000000000000600052601260045260246000fd5b6000610a83826106b5565b9150610a8e836106b5565b925082610a9e57610a9d610a49565b5b82820490509291505056fea264697066735822122073df89826a5cf0ecc8b19ada2012d468fcb45eaad4d236e5564e11d2d1e927aa64736f6c63430008090033",
  "linkReferences": {},
  "deployedLinkReferences": {}
}